{
  "_format": "hh-sol-artifact-1",
  "contractName": "CoconutBridgeStaking",
  "sourceName": "contracts/CoconutBridgeStaking.sol",
  "abi": [
    {
      "inputs": [
        {
          "internalType": "uint256",
          "name": "_startBlock",
          "type": "uint256"
        }
      ],
      "stateMutability": "nonpayable",
      "type": "constructor"
    },
    {
      "inputs": [
        {
          "internalType": "address",
          "name": "target",
          "type": "address"
        }
      ],
      "name": "AddressEmptyCode",
      "type": "error"
    },
    {
      "inputs": [
        {
          "internalType": "address",
          "name": "account",
          "type": "address"
        }
      ],
      "name": "AddressInsufficientBalance",
      "type": "error"
    },
    {
      "inputs": [],
      "name": "FailedInnerCall",
      "type": "error"
    },
    {
      "inputs": [
        {
          "internalType": "address",
          "name": "owner",
          "type": "address"
        }
      ],
      "name": "OwnableInvalidOwner",
      "type": "error"
    },
    {
      "inputs": [
        {
          "internalType": "address",
          "name": "account",
          "type": "address"
        }
      ],
      "name": "OwnableUnauthorizedAccount",
      "type": "error"
    },
    {
      "inputs": [
        {
          "internalType": "address",
          "name": "token",
          "type": "address"
        }
      ],
      "name": "SafeERC20FailedOperation",
      "type": "error"
    },
    {
      "anonymous": false,
      "inputs": [
        {
          "indexed": true,
          "internalType": "address",
          "name": "user",
          "type": "address"
        },
        {
          "indexed": true,
          "internalType": "uint256",
          "name": "pid",
          "type": "uint256"
        },
        {
          "indexed": false,
          "internalType": "uint256",
          "name": "amount",
          "type": "uint256"
        }
      ],
      "name": "Deposit",
      "type": "event"
    },
    {
      "anonymous": false,
      "inputs": [
        {
          "indexed": true,
          "internalType": "address",
          "name": "user",
          "type": "address"
        },
        {
          "indexed": true,
          "internalType": "uint256",
          "name": "pid",
          "type": "uint256"
        },
        {
          "indexed": false,
          "internalType": "uint256",
          "name": "amount",
          "type": "uint256"
        }
      ],
      "name": "EmergencyWithdraw",
      "type": "event"
    },
    {
      "anonymous": false,
      "inputs": [
        {
          "indexed": true,
          "internalType": "address",
          "name": "previousOwner",
          "type": "address"
        },
        {
          "indexed": true,
          "internalType": "address",
          "name": "newOwner",
          "type": "address"
        }
      ],
      "name": "OwnershipTransferred",
      "type": "event"
    },
    {
      "anonymous": false,
      "inputs": [
        {
          "indexed": true,
          "internalType": "address",
          "name": "user",
          "type": "address"
        },
        {
          "indexed": true,
          "internalType": "uint256",
          "name": "pid",
          "type": "uint256"
        },
        {
          "indexed": false,
          "internalType": "uint256",
          "name": "amount",
          "type": "uint256"
        }
      ],
      "name": "Withdraw",
      "type": "event"
    },
    {
      "inputs": [
        {
          "internalType": "uint256",
          "name": "_allocPoint",
          "type": "uint256"
        },
        {
          "internalType": "contract IERC20",
          "name": "_stakeToken",
          "type": "address"
        },
        {
          "internalType": "contract IERC20",
          "name": "_rewardToken",
          "type": "address"
        },
        {
          "internalType": "uint256",
          "name": "_rewardPerBlock",
          "type": "uint256"
        },
        {
          "internalType": "uint256",
          "name": "_endDate",
          "type": "uint256"
        },
        {
          "internalType": "bool",
          "name": "_withUpdate",
          "type": "bool"
        }
      ],
      "name": "addPool",
      "outputs": [],
      "stateMutability": "nonpayable",
      "type": "function"
    },
    {
      "inputs": [
        {
          "internalType": "uint256",
          "name": "_pid",
          "type": "uint256"
        },
        {
          "internalType": "uint256",
          "name": "_amount",
          "type": "uint256"
        }
      ],
      "name": "deposit",
      "outputs": [],
      "stateMutability": "nonpayable",
      "type": "function"
    },
    {
      "inputs": [
        {
          "internalType": "uint256",
          "name": "_pid",
          "type": "uint256"
        }
      ],
      "name": "emergencyWithdraw",
      "outputs": [],
      "stateMutability": "nonpayable",
      "type": "function"
    },
    {
      "inputs": [
        {
          "internalType": "address",
          "name": "_user",
          "type": "address"
        },
        {
          "internalType": "uint256",
          "name": "_pid",
          "type": "uint256"
        }
      ],
      "name": "getDiffBlock",
      "outputs": [
        {
          "internalType": "uint256",
          "name": "",
          "type": "uint256"
        }
      ],
      "stateMutability": "view",
      "type": "function"
    },
    {
      "inputs": [
        {
          "internalType": "uint256",
          "name": "_fromBlock",
          "type": "uint256"
        },
        {
          "internalType": "uint256",
          "name": "_toBlock",
          "type": "uint256"
        }
      ],
      "name": "getMultiplier",
      "outputs": [
        {
          "internalType": "uint256",
          "name": "",
          "type": "uint256"
        }
      ],
      "stateMutability": "pure",
      "type": "function"
    },
    {
      "inputs": [
        {
          "internalType": "uint256",
          "name": "_pid",
          "type": "uint256"
        }
      ],
      "name": "getPoolInfo",
      "outputs": [
        {
          "internalType": "uint256",
          "name": "",
          "type": "uint256"
        },
        {
          "internalType": "uint256",
          "name": "",
          "type": "uint256"
        },
        {
          "internalType": "uint256",
          "name": "",
          "type": "uint256"
        },
        {
          "internalType": "uint256",
          "name": "",
          "type": "uint256"
        },
        {
          "internalType": "uint256",
          "name": "",
          "type": "uint256"
        }
      ],
      "stateMutability": "view",
      "type": "function"
    },
    {
      "inputs": [
        {
          "internalType": "uint256",
          "name": "_pid",
          "type": "uint256"
        }
      ],
      "name": "getTotalTokenStaked",
      "outputs": [
        {
          "internalType": "uint256",
          "name": "",
          "type": "uint256"
        }
      ],
      "stateMutability": "view",
      "type": "function"
    },
    {
      "inputs": [],
      "name": "massUpdatePools",
      "outputs": [],
      "stateMutability": "nonpayable",
      "type": "function"
    },
    {
      "inputs": [],
      "name": "name",
      "outputs": [
        {
          "internalType": "string",
          "name": "",
          "type": "string"
        }
      ],
      "stateMutability": "view",
      "type": "function"
    },
    {
      "inputs": [],
      "name": "owner",
      "outputs": [
        {
          "internalType": "address",
          "name": "",
          "type": "address"
        }
      ],
      "stateMutability": "view",
      "type": "function"
    },
    {
      "inputs": [
        {
          "internalType": "uint256",
          "name": "_pid",
          "type": "uint256"
        },
        {
          "internalType": "address",
          "name": "_user",
          "type": "address"
        }
      ],
      "name": "pendingReward",
      "outputs": [
        {
          "internalType": "uint256",
          "name": "",
          "type": "uint256"
        }
      ],
      "stateMutability": "view",
      "type": "function"
    },
    {
      "inputs": [],
      "name": "poolLength",
      "outputs": [
        {
          "internalType": "uint256",
          "name": "",
          "type": "uint256"
        }
      ],
      "stateMutability": "view",
      "type": "function"
    },
    {
      "inputs": [],
      "name": "renounceOwnership",
      "outputs": [],
      "stateMutability": "nonpayable",
      "type": "function"
    },
    {
      "inputs": [
        {
          "internalType": "uint256",
          "name": "_pid",
          "type": "uint256"
        },
        {
          "internalType": "uint256",
          "name": "_allocPoint",
          "type": "uint256"
        },
        {
          "internalType": "uint256",
          "name": "_rewardPerBlock",
          "type": "uint256"
        },
        {
          "internalType": "uint256",
          "name": "_endDate",
          "type": "uint256"
        },
        {
          "internalType": "bool",
          "name": "_withUpdate",
          "type": "bool"
        }
      ],
      "name": "setPool",
      "outputs": [],
      "stateMutability": "nonpayable",
      "type": "function"
    },
    {
      "inputs": [],
      "name": "startBlock",
      "outputs": [
        {
          "internalType": "uint256",
          "name": "",
          "type": "uint256"
        }
      ],
      "stateMutability": "view",
      "type": "function"
    },
    {
      "inputs": [],
      "name": "totalUser",
      "outputs": [
        {
          "internalType": "uint256",
          "name": "",
          "type": "uint256"
        }
      ],
      "stateMutability": "view",
      "type": "function"
    },
    {
      "inputs": [
        {
          "internalType": "address",
          "name": "newOwner",
          "type": "address"
        }
      ],
      "name": "transferOwnership",
      "outputs": [],
      "stateMutability": "nonpayable",
      "type": "function"
    },
    {
      "inputs": [
        {
          "internalType": "uint256",
          "name": "_pid",
          "type": "uint256"
        }
      ],
      "name": "updatePool",
      "outputs": [],
      "stateMutability": "nonpayable",
      "type": "function"
    },
    {
      "inputs": [
        {
          "internalType": "uint256",
          "name": "",
          "type": "uint256"
        },
        {
          "internalType": "address",
          "name": "",
          "type": "address"
        }
      ],
      "name": "userInfo",
      "outputs": [
        {
          "internalType": "uint256",
          "name": "amount",
          "type": "uint256"
        },
        {
          "internalType": "uint256",
          "name": "rewardDebt",
          "type": "uint256"
        },
        {
          "internalType": "uint256",
          "name": "rewardClaimed",
          "type": "uint256"
        },
        {
          "internalType": "uint256",
          "name": "lastBlock",
          "type": "uint256"
        },
        {
          "internalType": "uint256",
          "name": "beginTime",
          "type": "uint256"
        },
        {
          "internalType": "uint256",
          "name": "endTime",
          "type": "uint256"
        }
      ],
      "stateMutability": "view",
      "type": "function"
    },
    {
      "inputs": [
        {
          "internalType": "uint256",
          "name": "_pid",
          "type": "uint256"
        },
        {
          "internalType": "uint256",
          "name": "_amount",
          "type": "uint256"
        }
      ],
      "name": "withdraw",
      "outputs": [],
      "stateMutability": "nonpayable",
      "type": "function"
    }
  ],
  "bytecode": "0x60806040526040518060400160405280601681526020017f436f636f6e75744272696467653a205374616b696e6700000000000000000000815250600190816200004a919062000452565b503480156200005857600080fd5b50604051620028f4380380620028f483398181016040528101906200007e91906200056f565b33600073ffffffffffffffffffffffffffffffffffffffff168173ffffffffffffffffffffffffffffffffffffffff1603620000f45760006040517f1e4fbdf7000000000000000000000000000000000000000000000000000000008152600401620000eb9190620005e6565b60405180910390fd5b62000105816200011460201b60201c565b50806005819055505062000603565b60008060009054906101000a900473ffffffffffffffffffffffffffffffffffffffff169050816000806101000a81548173ffffffffffffffffffffffffffffffffffffffff021916908373ffffffffffffffffffffffffffffffffffffffff1602179055508173ffffffffffffffffffffffffffffffffffffffff168173ffffffffffffffffffffffffffffffffffffffff167f8be0079c531659141344cd1fd0a4f28419497f9722a3daafe3b4186f6b6457e060405160405180910390a35050565b600081519050919050565b7f4e487b7100000000000000000000000000000000000000000000000000000000600052604160045260246000fd5b7f4e487b7100000000000000000000000000000000000000000000000000000000600052602260045260246000fd5b600060028204905060018216806200025a57607f821691505b60208210810362000270576200026f62000212565b5b50919050565b60008190508160005260206000209050919050565b60006020601f8301049050919050565b600082821b905092915050565b600060088302620002da7fffffffffffffffffffffffffffffffffffffffffffffffffffffffffffffffff826200029b565b620002e686836200029b565b95508019841693508086168417925050509392505050565b6000819050919050565b6000819050919050565b6000620003336200032d6200032784620002fe565b62000308565b620002fe565b9050919050565b6000819050919050565b6200034f8362000312565b620003676200035e826200033a565b848454620002a8565b825550505050565b600090565b6200037e6200036f565b6200038b81848462000344565b505050565b5b81811015620003b357620003a760008262000374565b60018101905062000391565b5050565b601f8211156200040257620003cc8162000276565b620003d7846200028b565b81016020851015620003e7578190505b620003ff620003f6856200028b565b83018262000390565b50505b505050565b600082821c905092915050565b6000620004276000198460080262000407565b1980831691505092915050565b600062000442838362000414565b9150826002028217905092915050565b6200045d82620001d8565b67ffffffffffffffff811115620004795762000478620001e3565b5b62000485825462000241565b62000492828285620003b7565b600060209050601f831160018114620004ca5760008415620004b5578287015190505b620004c1858262000434565b86555062000531565b601f198416620004da8662000276565b60005b828110156200050457848901518255600182019150602085019450602081019050620004dd565b8683101562000524578489015162000520601f89168262000414565b8355505b6001600288020188555050505b505050505050565b600080fd5b6200054981620002fe565b81146200055557600080fd5b50565b60008151905062000569816200053e565b92915050565b60006020828403121562000588576200058762000539565b5b6000620005988482850162000558565b91505092915050565b600073ffffffffffffffffffffffffffffffffffffffff82169050919050565b6000620005ce82620005a1565b9050919050565b620005e081620005c1565b82525050565b6000602082019050620005fd6000830184620005d5565b92915050565b6122e180620006136000396000f3fe608060405234801561001057600080fd5b506004361061012c5760003560e01c8063715018a6116100ad578063e1604b7011610071578063e1604b701461033a578063e2bbb15814610358578063ec11478b14610374578063f2fde38b14610390578063fa66bb87146103ac5761012c565b8063715018a61461027d5780638da5cb5b146102875780638dbb1e3a146102a557806393f1a40b146102d557806398969e821461030a5761012c565b806348cd4cb1116100f457806348cd4cb1146101ed57806351eb05a61461020b5780635312ea8e14610227578063630b5ba11461024357806370a341be1461024d5761012c565b806306fdde0314610131578063081e3eda1461014f5780632f380b351461016d5780633d59fa44146101a1578063441a3e70146101d1575b600080fd5b6101396103c8565b604051610146919061196a565b60405180910390f35b610157610456565b60405161016491906119a5565b60405180910390f35b610187600480360381019061018291906119f1565b610463565b604051610198959493929190611a1e565b60405180910390f35b6101bb60048036038101906101b69190611acf565b61053c565b6040516101c891906119a5565b60405180910390f35b6101eb60048036038101906101e69190611b0f565b6105f1565b005b6101f5610873565b60405161020291906119a5565b60405180910390f35b610225600480360381019061022091906119f1565b610879565b005b610241600480360381019061023c91906119f1565b610955565b005b61024b610a90565b005b610267600480360381019061026291906119f1565b610ac3565b60405161027491906119a5565b60405180910390f35b610285610af7565b005b61028f610b0b565b60405161029c9190611b5e565b60405180910390f35b6102bf60048036038101906102ba9190611b0f565b610b34565b6040516102cc91906119a5565b60405180910390f35b6102ef60048036038101906102ea9190611b79565b610b4a565b60405161030196959493929190611bb9565b60405180910390f35b610324600480360381019061031f9190611b79565b610b93565b60405161033191906119a5565b60405180910390f35b610342610cf5565b60405161034f91906119a5565b60405180910390f35b610372600480360381019061036d9190611b0f565b610cfb565b005b61038e60048036038101906103899190611c52565b610fc6565b005b6103aa60048036038101906103a59190611ccd565b611080565b005b6103c660048036038101906103c19190611d38565b611106565b005b600180546103d590611df4565b80601f016020809104026020016040519081016040528092919081815260200182805461040190611df4565b801561044e5780601f106104235761010080835404028352916020019161044e565b820191906000526020600020905b81548152906001019060200180831161043157829003601f168201915b505050505081565b6000600280549050905090565b60008060008060006002868154811061047f5761047e611e25565b5b906000526020600020906009020160040154600287815481106104a5576104a4611e25565b5b906000526020600020906009020160030154600288815481106104cb576104ca611e25565b5b906000526020600020906009020160050154600289815481106104f1576104f0611e25565b5b90600052602060002090600902016006015460028a8154811061051757610516611e25565b5b9060005260206000209060090201600701549450945094509450945091939590929450565b6000806003600084815260200190815260200160002060008573ffffffffffffffffffffffffffffffffffffffff1673ffffffffffffffffffffffffffffffffffffffff168152602001908152602001600020905060008160000154116105d8576040517f08c379a00000000000000000000000000000000000000000000000000000000081526004016105cf90611ea0565b60405180910390fd5b8060030154436105e89190611eef565b91505092915050565b60006002838154811061060757610606611e25565b5b9060005260206000209060090201905060006003600085815260200190815260200160002060003373ffffffffffffffffffffffffffffffffffffffff1673ffffffffffffffffffffffffffffffffffffffff168152602001908152602001600020905082816000015410156106b2576040517f08c379a00000000000000000000000000000000000000000000000000000000081526004016106a990611f6f565b60405180910390fd5b6106bb84610879565b60008160010154670de0b6b3a7640000846004015484600001546106df9190611f8f565b6106e99190612000565b6106f39190611eef565b90506000811115610740576107093382876112ae565b8083600701600082825461071d9190612031565b92505081905550808260020160008282546107389190612031565b925050819055505b60008411156107e5578382600001600082825461075d9190611eef565b92505081905550600082600001540361077a574282600501819055505b8383600601600082825461078e9190611eef565b925050819055506107e433858560000160009054906101000a900473ffffffffffffffffffffffffffffffffffffffff1673ffffffffffffffffffffffffffffffffffffffff166114389092919063ffffffff16565b5b670de0b6b3a7640000836004015483600001546108029190611f8f565b61080c9190612000565b8260010181905550438260030181905550843373ffffffffffffffffffffffffffffffffffffffff167ff279e6a1f5e320cca91135676d9cb6e44ca8a08c0b88342bcdb1144f6511b5688660405161086491906119a5565b60405180910390a35050505050565b60055481565b60006002828154811061088f5761088e611e25565b5b90600052602060002090600902019050806003015443116108b05750610952565b60006108bb83610ac3565b905060008114806108d0575060008260020154145b156108e5574382600301819055505050610952565b60006108f5836003015443610b34565b905060008360050154826109099190611f8f565b905082670de0b6b3a7640000826109209190611f8f565b61092a9190612000565b84600401600082825461093d9190612031565b92505081905550438460030181905550505050505b50565b60006002828154811061096b5761096a611e25565b5b9060005260206000209060090201905060006003600084815260200190815260200160002060003373ffffffffffffffffffffffffffffffffffffffff1673ffffffffffffffffffffffffffffffffffffffff16815260200190815260200160002090506000816000015490506000826000018190555060008260010181905550610a3b33828560000160009054906101000a900473ffffffffffffffffffffffffffffffffffffffff1673ffffffffffffffffffffffffffffffffffffffff166114389092919063ffffffff16565b833373ffffffffffffffffffffffffffffffffffffffff167fbb757047c2b5f3974fe26b7c10f732e7bce710b0952a71082702781e62ae059583604051610a8291906119a5565b60405180910390a350505050565b6000600280549050905060005b81811015610abf57610aae81610879565b80610ab890612065565b9050610a9d565b5050565b60008060028381548110610ada57610ad9611e25565b5b906000526020600020906009020190508060060154915050919050565b610aff6114b7565b610b09600061153e565b565b60008060009054906101000a900473ffffffffffffffffffffffffffffffffffffffff16905090565b60008282610b429190611eef565b905092915050565b6003602052816000526040600020602052806000526040600020600091509150508060000154908060010154908060020154908060030154908060040154908060050154905086565b60008060028481548110610baa57610ba9611e25565b5b9060005260206000209060090201905060006003600086815260200190815260200160002060008573ffffffffffffffffffffffffffffffffffffffff1673ffffffffffffffffffffffffffffffffffffffff16815260200190815260200160002090506000826004015490506000610c2287610ac3565b9050836003015443118015610c375750600081115b15610c91576000610c4c856003015443610b34565b90506000856005015482610c609190611f8f565b905082670de0b6b3a764000082610c779190611f8f565b610c819190612000565b84610c8c9190612031565b935050505b6000811480610ca4575083600301544311155b15610cb6576000945050505050610cef565b8260010154670de0b6b3a7640000838560000154610cd49190611f8f565b610cde9190612000565b610ce89190611eef565b9450505050505b92915050565b60045481565b600060028381548110610d1157610d10611e25565b5b9060005260206000209060090201905060006003600085815260200190815260200160002060003373ffffffffffffffffffffffffffffffffffffffff1673ffffffffffffffffffffffffffffffffffffffff168152602001908152602001600020905081600801544210610dbb576040517f08c379a0000000000000000000000000000000000000000000000000000000008152600401610db2906120f9565b60405180910390fd5b610dc484610879565b600081600001541115610e5c5760008160010154670de0b6b3a764000084600401548460000154610df59190611f8f565b610dff9190612000565b610e099190611eef565b90506000811115610e5657610e1f3382876112ae565b80836007016000828254610e339190612031565b9250508190555080826002016000828254610e4e9190612031565b925050819055505b50610e8a565b600160046000828254610e6f9190612031565b92505081905550428160040181905550600081600501819055505b60008311610ecd576040517f08c379a0000000000000000000000000000000000000000000000000000000008152600401610ec49061218b565b60405180910390fd5b610f1e3330858560000160009054906101000a900473ffffffffffffffffffffffffffffffffffffffff1673ffffffffffffffffffffffffffffffffffffffff16611602909392919063ffffffff16565b82816000016000828254610f329190612031565b92505081905550670de0b6b3a764000082600401548260000154610f569190611f8f565b610f609190612000565b8160010181905550438160030181905550833373ffffffffffffffffffffffffffffffffffffffff167f90890809c654f11d6e72a28fa60149770a0d11ec6c92319d6ceb2bb0a4ea1a1585604051610fb891906119a5565b60405180910390a350505050565b610fce6114b7565b8015610fdd57610fdc610a90565b5b6000841115611011578360028681548110610ffb57610ffa611e25565b5b9060005260206000209060090201600201819055505b600083111561104557826002868154811061102f5761102e611e25565b5b9060005260206000209060090201600501819055505b600082111561107957816002868154811061106357611062611e25565b5b9060005260206000209060090201600801819055505b5050505050565b6110886114b7565b600073ffffffffffffffffffffffffffffffffffffffff168173ffffffffffffffffffffffffffffffffffffffff16036110fa5760006040517f1e4fbdf70000000000000000000000000000000000000000000000000000000081526004016110f19190611b5e565b60405180910390fd5b6111038161153e565b50565b61110e6114b7565b801561111d5761111c610a90565b5b6000600554431161113057600554611132565b435b905060026040518061012001604052808873ffffffffffffffffffffffffffffffffffffffff1681526020018773ffffffffffffffffffffffffffffffffffffffff16815260200189815260200183815260200160008152602001868152602001600081526020016000815260200185815250908060018154018082558091505060019003906000526020600020906009020160009091909190915060008201518160000160006101000a81548173ffffffffffffffffffffffffffffffffffffffff021916908373ffffffffffffffffffffffffffffffffffffffff16021790555060208201518160010160006101000a81548173ffffffffffffffffffffffffffffffffffffffff021916908373ffffffffffffffffffffffffffffffffffffffff16021790555060408201518160020155606082015181600301556080820151816004015560a0820151816005015560c0820151816006015560e082015181600701556101008201518160080155505050505050505050565b6000600282815481106112c4576112c3611e25565b5b906000526020600020906009020190506000816002015490508084111561138d578160010160009054906101000a900473ffffffffffffffffffffffffffffffffffffffff1673ffffffffffffffffffffffffffffffffffffffff1663a9059cbb86836040518363ffffffff1660e01b81526004016113449291906121ab565b6020604051808303816000875af1158015611363573d6000803e3d6000fd5b505050506040513d601f19601f8201168201806040525081019061138791906121e9565b50611431565b8160010160009054906101000a900473ffffffffffffffffffffffffffffffffffffffff1673ffffffffffffffffffffffffffffffffffffffff1663a9059cbb86866040518363ffffffff1660e01b81526004016113ec9291906121ab565b6020604051808303816000875af115801561140b573d6000803e3d6000fd5b505050506040513d601f19601f8201168201806040525081019061142f91906121e9565b505b5050505050565b6114b2838473ffffffffffffffffffffffffffffffffffffffff1663a9059cbb858560405160240161146b9291906121ab565b604051602081830303815290604052915060e01b6020820180517bffffffffffffffffffffffffffffffffffffffffffffffffffffffff8381831617835250505050611684565b505050565b6114bf61171b565b73ffffffffffffffffffffffffffffffffffffffff166114dd610b0b565b73ffffffffffffffffffffffffffffffffffffffff161461153c5761150061171b565b6040517f118cdaa70000000000000000000000000000000000000000000000000000000081526004016115339190611b5e565b60405180910390fd5b565b60008060009054906101000a900473ffffffffffffffffffffffffffffffffffffffff169050816000806101000a81548173ffffffffffffffffffffffffffffffffffffffff021916908373ffffffffffffffffffffffffffffffffffffffff1602179055508173ffffffffffffffffffffffffffffffffffffffff168173ffffffffffffffffffffffffffffffffffffffff167f8be0079c531659141344cd1fd0a4f28419497f9722a3daafe3b4186f6b6457e060405160405180910390a35050565b61167e848573ffffffffffffffffffffffffffffffffffffffff166323b872dd86868660405160240161163793929190612216565b604051602081830303815290604052915060e01b6020820180517bffffffffffffffffffffffffffffffffffffffffffffffffffffffff8381831617835250505050611684565b50505050565b60006116af828473ffffffffffffffffffffffffffffffffffffffff1661172390919063ffffffff16565b905060008151141580156116d45750808060200190518101906116d291906121e9565b155b1561171657826040517f5274afe700000000000000000000000000000000000000000000000000000000815260040161170d9190611b5e565b60405180910390fd5b505050565b600033905090565b606061173183836000611739565b905092915050565b60608147101561178057306040517fcd7860590000000000000000000000000000000000000000000000000000000081526004016117779190611b5e565b60405180910390fd5b6000808573ffffffffffffffffffffffffffffffffffffffff1684866040516117a99190612294565b60006040518083038185875af1925050503d80600081146117e6576040519150601f19603f3d011682016040523d82523d6000602084013e6117eb565b606091505b50915091506117fb868383611806565b925050509392505050565b60608261181b5761181682611895565b61188d565b60008251148015611843575060008473ffffffffffffffffffffffffffffffffffffffff163b145b1561188557836040517f9996b31500000000000000000000000000000000000000000000000000000000815260040161187c9190611b5e565b60405180910390fd5b81905061188e565b5b9392505050565b6000815111156118a85780518082602001fd5b6040517f1425ea4200000000000000000000000000000000000000000000000000000000815260040160405180910390fd5b600081519050919050565b600082825260208201905092915050565b60005b838110156119145780820151818401526020810190506118f9565b60008484015250505050565b6000601f19601f8301169050919050565b600061193c826118da565b61194681856118e5565b93506119568185602086016118f6565b61195f81611920565b840191505092915050565b600060208201905081810360008301526119848184611931565b905092915050565b6000819050919050565b61199f8161198c565b82525050565b60006020820190506119ba6000830184611996565b92915050565b600080fd5b6119ce8161198c565b81146119d957600080fd5b50565b6000813590506119eb816119c5565b92915050565b600060208284031215611a0757611a066119c0565b5b6000611a15848285016119dc565b91505092915050565b600060a082019050611a336000830188611996565b611a406020830187611996565b611a4d6040830186611996565b611a5a6060830185611996565b611a676080830184611996565b9695505050505050565b600073ffffffffffffffffffffffffffffffffffffffff82169050919050565b6000611a9c82611a71565b9050919050565b611aac81611a91565b8114611ab757600080fd5b50565b600081359050611ac981611aa3565b92915050565b60008060408385031215611ae657611ae56119c0565b5b6000611af485828601611aba565b9250506020611b05858286016119dc565b9150509250929050565b60008060408385031215611b2657611b256119c0565b5b6000611b34858286016119dc565b9250506020611b45858286016119dc565b9150509250929050565b611b5881611a91565b82525050565b6000602082019050611b736000830184611b4f565b92915050565b60008060408385031215611b9057611b8f6119c0565b5b6000611b9e858286016119dc565b9250506020611baf85828601611aba565b9150509250929050565b600060c082019050611bce6000830189611996565b611bdb6020830188611996565b611be86040830187611996565b611bf56060830186611996565b611c026080830185611996565b611c0f60a0830184611996565b979650505050505050565b60008115159050919050565b611c2f81611c1a565b8114611c3a57600080fd5b50565b600081359050611c4c81611c26565b92915050565b600080600080600060a08688031215611c6e57611c6d6119c0565b5b6000611c7c888289016119dc565b9550506020611c8d888289016119dc565b9450506040611c9e888289016119dc565b9350506060611caf888289016119dc565b9250506080611cc088828901611c3d565b9150509295509295909350565b600060208284031215611ce357611ce26119c0565b5b6000611cf184828501611aba565b91505092915050565b6000611d0582611a91565b9050919050565b611d1581611cfa565b8114611d2057600080fd5b50565b600081359050611d3281611d0c565b92915050565b60008060008060008060c08789031215611d5557611d546119c0565b5b6000611d6389828a016119dc565b9650506020611d7489828a01611d23565b9550506040611d8589828a01611d23565b9450506060611d9689828a016119dc565b9350506080611da789828a016119dc565b92505060a0611db889828a01611c3d565b9150509295509295509295565b7f4e487b7100000000000000000000000000000000000000000000000000000000600052602260045260246000fd5b60006002820490506001821680611e0c57607f821691505b602082108103611e1f57611e1e611dc5565b5b50919050565b7f4e487b7100000000000000000000000000000000000000000000000000000000600052603260045260246000fd5b7f55736572206e6f7420666f756e6420696e207468697320706f6f6c0000000000600082015250565b6000611e8a601b836118e5565b9150611e9582611e54565b602082019050919050565b60006020820190508181036000830152611eb981611e7d565b9050919050565b7f4e487b7100000000000000000000000000000000000000000000000000000000600052601160045260246000fd5b6000611efa8261198c565b9150611f058361198c565b9250828203905081811115611f1d57611f1c611ec0565b5b92915050565b7f57697468647261773a20496e73756666696369656e742062616c616e63650000600082015250565b6000611f59601e836118e5565b9150611f6482611f23565b602082019050919050565b60006020820190508181036000830152611f8881611f4c565b9050919050565b6000611f9a8261198c565b9150611fa58361198c565b9250828202611fb38161198c565b91508282048414831517611fca57611fc9611ec0565b5b5092915050565b7f4e487b7100000000000000000000000000000000000000000000000000000000600052601260045260246000fd5b600061200b8261198c565b91506120168361198c565b92508261202657612025611fd1565b5b828204905092915050565b600061203c8261198c565b91506120478361198c565b925082820190508082111561205f5761205e611ec0565b5b92915050565b60006120708261198c565b91507fffffffffffffffffffffffffffffffffffffffffffffffffffffffffffffffff82036120a2576120a1611ec0565b5b600182019050919050565b7f5374616b696e6720706f6f6c20616c726561647920636c6f7365640000000000600082015250565b60006120e3601b836118e5565b91506120ee826120ad565b602082019050919050565b60006020820190508181036000830152612112816120d6565b9050919050565b7f4465706f73697420616d6f756e74206d7573742062652067726561746572207460008201527f68616e2030000000000000000000000000000000000000000000000000000000602082015250565b60006121756025836118e5565b915061218082612119565b604082019050919050565b600060208201905081810360008301526121a481612168565b9050919050565b60006040820190506121c06000830185611b4f565b6121cd6020830184611996565b9392505050565b6000815190506121e381611c26565b92915050565b6000602082840312156121ff576121fe6119c0565b5b600061220d848285016121d4565b91505092915050565b600060608201905061222b6000830186611b4f565b6122386020830185611b4f565b6122456040830184611996565b949350505050565b600081519050919050565b600081905092915050565b600061226e8261224d565b6122788185612258565b93506122888185602086016118f6565b80840191505092915050565b60006122a08284612263565b91508190509291505056fea2646970667358221220cfa0b2067a982738ba470adec550ad384da4eec63daacec5e9be4cfda601b24d64736f6c63430008140033",
  "linkReferences": {},
  "deployedLinkReferences": {}
}